:1000000014C02CC02BC02AC029C028C030C026C0B4
:1000100025C024C023C022C021C020C01FC01EC0D4
:100020001DC01CC01BC01AC019C011241FBECFEDBB
:10003000CDBF10E0A0E6B0E0E4E8F6E002C0059035
:100040000D92AA36B107D9F710E0AAE6B0E001C0D8
:100050001D92AD37B107E1F738D212C3D1CF83B7C4
:10006000816083BF89B7826089BF789408951F92A9
:100070000F920FB60F9211242F938F939F93AF93EC
:10008000BF93809171009091720080509F4F19C072
:100090008091730090917400A0917500B0917600EA
:1000A0000196A11DB11D8093730090937400A093DD
:1000B0007500B09376008091710090917200885E17
:1000C00093409093720080937100809171009091A1
:1000D000720023E0893E9207D8F6BF91AF919F91BD
:1000E0008F912F910F900FBE0F901F9018950F9327
:1000F0001F93F89400917300109174002091750083
:10010000309176007894B801C9011F910F9108953C
:1001100082B3877E82BB22B380916C0090E001960F
:100120008370907033E0880F991F3A95E1F7282B80
:1001300022BB0895E62F20917700309178002F5F41
:100140003F4F30937800209377002330310521F41E
:10015000109278001092770020917700309178000B
:100160006CE370E021D22115310529F4CB016AE05E
:1001700070E01AD207C06AE00BD22130310509F0D5
:10018000892F90E022B3287F22BB805A9F4FE074D2
:10019000DC018C91E82BE8BB22B381E090E0009079
:1001A000770002C0880F991F0A94E2F74823422B78
:1001B00042BB089580E090E040D290936B00809322
:1001C0006A0022E08835920730F08EE190E090934B
:1001D0006B0080936A00089560916A0070916B00D3
:1001E00080E090E02DC2CF92DF92EF92FF927FDF0E
:1001F0006B017C017CDFDC01CB01409179005091E7
:100200007A0060917B0070917C00841B950BA60B9B
:10021000B70B85309105A105B10568F089B38095CC
:10022000837080937000C0927900D0927A00E0923F
:100230007B00F0927C008091700020916F00922FE3
:100240009095982390936E00982F90959223909379
:100250006D0080936F00FF90EF90DF90CF90089536
:10026000C2DF80E090E060E040E064DF80917000F9
:100270008823B1F70895AF92BF92DF92EF92FF9279
:100280000F931F93CF93DF93D0906A0090916B00F0
:100290008D2D6CE370E088D1862F162F64EC5DD134
:1002A000D80EC0E0D2E05AE0A52EB12C26C09BDFCC
:1002B000E12EFF24C7016CE370E058D190936B00EE
:1002C00080936A0041E022E0C030D20708F040E0AD
:1002D0006FEF30DF80916E0080FF07C0C70101968D
:1002E000B50176D1182FC0E0D0E089EF90E00197FA
:1002F000F1F700C000002296D37080916E0081FF5C
:10030000D6CF10926E00812F90E06CE370E02ED17A
:100310007C01C0E0D0E04CE3A42EB12C26C063DF0A
:100320000D2D10E0C701800F911F90936B008093FB
:100330006A0022E0C030D20710F447E001C041E07B
:100340006FEFF8DE80916E0080FF07C0C801059650
:10035000B5013ED1D82EC0E0D0E089EF90E0019702
:10036000F1F700C000002296D37080916E0081FFEB
:10037000D6CF32DF75DFDF91CF911F910F91FF90C4
:10038000EF90DF90BF90AF9008954F925F926F9281
:100390007F928F929F92AF92BF92EF92FF920F93B4
:1003A0001F93CF93DF935CDFA2DE2B013C0122B3CE
:1003B00080916C0090E00196E5E0880F991FEA9526
:1003C000E1F7282B22BB00E010E0EE24FF24F8EE3A
:1003D0008F2EF3E09F2EA12CB12C89DE64197509B4
:1003E00086099709A501940106D1C0916A00D091B0
:1003F0006B002C173D0718F4C21BD30B02C0C0E0E2
:10040000D0E0F1DE82E00030180710F040E001C0DB
:100410004FEFCE01642F8EDE209751F482B38F7997
:1004200082BB8091700080FD19C00E5F1F4F13705A
:100430008091700080FF09C00894E11CF11C94EFCA
:10044000E91691E0F90619F409C0EE24FF2489EFBA
:1004500090E00197F1F700C00000BFCF82B38F7921
:1004600082BBFEDEDF91CF911F910F91FF90EF9045
:10047000BF90AF909F908F907F906F905F904F90C4
:1004800008958FEF87BB87E081BB84E082BB80E06B
:1004900090E0C1E0D0E0E3E0F0E02091610028BB13
:1004A0009E01082E02C0220F331F0A94E2F722BBDE
:1004B0000196BF018DD02FE936E841E02150304050
:1004C0004040E1F700C00000E8CF1ABA83E08BBBE0
:1004D0008FEF87BB8FE781BB6DDE1ADEC0DDC0E02A
:1004E000D0E000E010E0A3E0EA2EF12C7CDE809169
:1004F0006A0090916B006FEF4FEF1CDE80917000EF
:1005000080FF07C0219681E0C43FD80721F43DDF7A
:1005100002C0C0E0D0E080916D0081FF09C08091F1
:100520006C0090E00196B70153D080936C00F0DD31
:100530008091700081FF08C00F5F1F4F95E00C3D58
:10054000190721F498DE02C000E010E089EF90E086
:100550000197F1F700C00000C9CF002480FD060E0E
:10056000660F11F08695D1F7802D08955527002448
:1005700080FF02C0060E571F660F771F61157105B9
:1005800021F096958795009799F7952F802D0895DE
:10059000991B79E004C0991F961708F0961B881FD5
:1005A0007A95C9F780950895AA1BBB1B51E107C036
:1005B000AA1FBB1FA617B70710F0A61BB70B881FF3
:1005C000991F5A95A9F780959095BC01CD01089582
:1005D00097FB092E07260AD077FD04D0E5DF06D069
:1005E00000201AF4709561957F4F0895F6F7909565
:1005F00081959F4F0895A1E21A2EAA1BBB1BFD01F6
:100600000DC0AA1FBB1FEE1FFF1FA217B307E407F1
:10061000F50720F0A21BB30BE40BF50B661F771F49
:10062000881F991F1A9469F7609570958095909529
:100630009B01AC01BD01CF010895A8E142E005C0D6
:1006400011D0272F10C0A82F862FE82FE199FECFB9
:100650001FBA05C0EEBBE09AE3950DB20D92415072
:10066000C8F70895262FE199FECF1CBA1FBA8EBB9A
:100670002DBB0FB6F894E29AE19A0FBE0196089549
:04068000F894FFCF1C
:0A06840004B61190A28808B40080AB
:00000001FF
